:02000002D0002C
:1040000000400D0060A10D00000006000C0005013D
:084010000401E80500000000B6
:044018002C980D00D3
:1040200009480A49884208B505D0094A824202D0A7
:10403000121A05F06BFB0748074A0021121A05F017
:1040400070FB014808BD00BF60E20320C4A00D0062
:10405000D4E20320D8E20320F4E7032070B503F094
:1040600029FB074C074BE41AA40800251E46A5426D
:1040700004D056F8253098470135F8E770BD00BFE9
:10408000B8A00D0074A00D0000F0B6BB08B500F09C
:1040900017F9BDE8084003F0CFBA02F04BB902F0BF
:1040A00051B902F04FB90078B0FA80F0400970477A
:1040B000012303707047704710B5064B03606433EB
:1040C0000446036102F027FF204603F0E9F820468A
:1040D00010BD00BFF49E0D0010B50446006808B185
:1040E00002F030F9204610BD10B51821044603F047
:1040F000B0FB204610BD10B50446FFF7DDFF20469B
:104100004C2103F0A6FB204610BD0368C9B29B6892
:104110001847000010B596B001A801F0D3FC0021AB
:10412000134803F000F9041E1DDD14F1FF3407D31A
:104130000F4802F074FEC1B201A801F022FDF4E7BD
:1041400001A801F02DFD70B10A4A0B4901A801F048
:10415000A3FD0A4A0A4901A801F09EFD094A0A493D
:1041600001A801F099FD01A801F0EEFC16B010BD08
:1041700048E303201D460D0040980D0065460D00E4
:1041800049980D00B1460D004E980D0030B59DB018
:104190001649174D07A801F0B3FC164B07A893ED7D
:1041A000000A01F0CFFD144B07A893ED000A01F0BF
:1041B000C9FD124B07A893ED000A01F0C3FD104B97
:1041C00001930FCD02AC0FC42B680E49237001AAD6
:1041D0004FF4FA5307A801F0DFFD4FF4FA7002F034
:1041E000D1F807A801F0B0FC1DB030BD55980D0006
:1041F000FCE203209CE30320F4E203201CE3032001
:10420000689D0D0048E3032030B59DB01049114D65
:1042100007A801F075FC104B07A893ED000A01F008
:1042200091FD0E4B01930FCD02AC0FC42B680C49CE
:10423000237001AA4FF4FA5307A801F0ADFD4FF423
:10424000FA7002F09FF807A801F07EFC1DB030BDA7
:1042500064980D00FCE2032098E30320689D0D00A4
:1042600048E3032030B59DB01049114D07A801F077
:1042700047FC104B07A893ED000A01F063FD0E4BBD
:1042800001930FCD02AC0FC42B680C49237001AA17
:104290004FF4FA5307A801F07FFD4FF4FA7002F0D3
:1042A00071F807A801F050FC1DB030BD70980D00EA
:1042B000FCE2032094E30320689D0D0048E3032003
:1042C000F8B55C4C5C4F5D4E5D4D2DED028B03F0FF
:1042D00095FA21689FED5B8A02F035F903F08EFABA
:1042E0003221FFF712FF03F089FA002102F02EF9C4
:1042F00003F084FA06222178012302F00BF903F07F
:104300007DFA03685B699847044603F077FA03680F
:104310005B69984744EA002007EE900AB8EEE77A16
:1043200027EE087A87ED007A03F068FA03685B6984
:104330009847044603F062FA03685B69984744EAC9
:10434000002007EE900AB8EEE77A27EE087A86EDAD
:10435000007A03F053FA03685B699847044603F058
:104360004DFA03685B69984744EA002007EE900A1B
:10437000F8EEE77A344C67EE887AC5ED007A03F000
:10438000D9F8324902F00CFB03F0D4F897ED000A9B
:10439000022102F001FC03F0CDF82D4902F000FBF0
:1043A00003F0C8F896ED000A022102F0F5FB03F0D5
:1043B000C1F8284902F0F4FA03F0BCF895ED000AC0
:1043C000022102F006FCFFF7E1FE132003F0E5F9FD
:1043D00007EE900AF8EEE77AC4ED007A03F0AAF847
:1043E0001D4902F0DDFA03F0A5F894ED000A1B4C1C
:1043F000022102F0EEFB122003F0CFF907EE900A43
:10440000F8EEE77AC4ED007A03F094F8144902F06C
:10441000C7FA03F08FF894ED000A022102F0D9FBED
:10442000FFF7F2FEFFF71EFFBDEC028BBDE8F84080
:10443000FFF770BE64E203209CE30320F4E2032054
:104440001CE303200000803B98E303207F980D00CD
:1044500084980D008C980D0094980D0094E303202F
:104460009D980D0030B59DB019491A4D07A801F06F
:1044700047FB4FF48051002002F0C5FB014607A81E
:1044800001F03AFC4FF48051002002F0BCFB0146E1
:1044900007A801F031FC4FF48051002002F0B3FB7B
:1044A000014607A801F028FC0B4B01930FCD02AC8D
:1044B0000FC42B68237001AA4FF4FA53074907A8C9
:1044C00001F06AFC07A801F03FFB1DB030BD00BF42
:1044D000A7980D00FCE20320689D0D0048E303202F
:1044E00030B59DB03449354D07A801F009FB4FF4B4
:1044F0008051002002F087FB014607A801F0FCFB79
:104500004FF48051002002F07EFB014607A801F025
:10451000F3FB4FF48051002002F075FB014607A821
:1045200001F0EAFB4FF48051002002F06CFB0146E1
:1045300007A801F0E1FB4FF48051002002F063FB7B
:10454000014607A801F0D8FB4FF48051002002F08B
:104550005AFB014607A801F0CFFB4FF48051002021
:1045600002F051FB014607A801F0C6FB4FF4805151
:10457000002002F048FB014607A801F0BDFB4FF404
:104580008051002002F03FFB014607A801F0B4FB78
:104590000B4B01930FCD02AC0FC42B68237001AA03
:1045A0004FF4FA53074907A801F0F6FB07A801F0FA
:1045B000CBFA1DB030BD00BFB2980D00FCE2032065
:1045C000689D0D0048E303202DE9F04107460C46A5
:1045D00015462AB90368C9B29B68BDE8F04118477F
:1045E000002907DA0A2A05D12D2102F0DDF96142FE
:1045F000064601E021460026EAB2384602F0EDF90F
:104600003044BDE8F08138B50546FFF7DDFF0446CC
:10461000284602F0CCF9204438BD000038B50446E5
:1046200002F088FF0E4902F0CEF902F083FF00216C
:104630000546204601F03DFB0A2201462846FFF7C9
:10464000E2FF02F077FF01210546204601F040FB22
:104650002846022102F0BDFABDE83840FFF796BDBA
:10466000B8980D0038B5044602F064FF0F4902F017
:10467000AAF902F05FFF00210546204601F019FB70
:104680000A2201462846FFF7BEFF02F053FF012130
:104690000546204601F00DFB0A2201462846FFF799
:1046A000B2FFBDE83840FFF7DDBE00BFC1980D0086
:1046B00038B5044602F03EFF444902F071F902F0B9
:1046C00039FF00210546204601F0F3FA0A2201468F
:1046D0002846FFF798FF2046002101F0EAFA022859
:1046E00004461FD003283ED001286AD107220021AA
:1046F000374800F050FE34222146354800F04BFE8A
:1047000007220221324800F046FE342203213048BD
:1047100000F041FE472204212D4800F03CFE00221B
:10472000052145E053220021294800F034FE4A22A9
:104730000121274800F02FFE53222146244800F093
:104740002AFE4A220321224800F025FE532204219A
:104750001F4800F020FE4A2205211D4800F01BFEE4
:104760000022062124E022220021194800F013FE35
:104770001B220121164800F00EFE382202211448A7
:1047800000F009FE34222146114800F004FE2222E6
:1047900004210F4800F0FFFD1B2205210C4800F00A
:1047A000FAFD0C2206210A4800F0F5FD002207213F
:1047B000074800F0F0FD064800F0F5FD322001F05A
:1047C000E1FDBDE83840FFF78BBE00BFC5980D0086
:1047D000A0E3032038B505461AB903689B689847DB
:1047E00002E0D2B202F0F9F80446284602F0DFF8FF
:1047F000204438BD00000000F0B599B002F09AFEE8
:104800004FF4614102F084FE02F094FE02F087FE54
:104810000028F9D001210720CB4C02F0ADFF002386
:104820001A461946606801F035FD0022114660689D
:1048300001F048FD0028F8D0C44BC5481988C54F81
:10484000002202F01AFB02F075FEC34902F0A8F83C
:10485000BD4B00221146586801F014FD12AE811CB8
:1048600013AD304601F0BEFE0FCD3C1D0FC42B68CA
:104870003979FA792370BB79019179790091B74838
:10488000B74901F06FFD02F055FEB44902F09BF804
:1048900041F2883001F076FD02F04CFE4FF46141A8
:1048A00002F036FE02F046FEAE4902F08CF8AE4849
:1048B00000F0C4FD3146AC4800F06BFE02F03AFE59
:1048C000AA4902F080F8344618AD02F033FEB4EC89
:1048D000020B062102F06FF902F02CFEA44902F04F
:1048E0005FF8A542F1D102F025FE9E4902F06BF877
:1048F0008FA3D3E90023CDE90C238FA3D3E90023B1
:10490000CDE90E238EA3D3E900230CAD29469648AA
:10491000CDE9102300F032FE2946934800F039FE1D
:1049200002F008FE934902F04EF82C462F4602F0A2
:1049300001FEB7EC020B022102F03DF902F0FAFD94
:104940008B4902F02DF8BE42F1D102F0F3FD85490A
:1049500002F039F83146844800F010FE29468248BA
:1049600000F017FE02F0E6FD834902F02CF802F099
:10497000E1FDB4EC020B062102F01DF902F0DAFDB4
:104980007B4902F00DF8A642F1D102F0D3FD754942
:1049900002F019F805AB04AA03A9734800F0A1FDC1
:1049A00002F0C8FD754901F0FBFF02F0C3FD0A22C9
:1049B0000399FFF709FE02F0BDFD6D4901F0F0FF1C
:1049C00002F0B8FD0A220499FFF7FEFD02F0B2FDE5
:1049D000674901F0E5FF02F0ADFD0A220599FFF7F6
:1049E000F3FD02F0A7FD5F4901F0EDFF06A95E4867
:1049F00000F08FFD02F09EFD614901F0D1FF06AC91
:104A000002F098FDB4EC020B0A2102F0D4F802F097
:104A100091FD574901F0C4FFA542F1D102F08AFD92
:104A2000504901F0D0FF01214F4800F08FFD02F006
:104A300081FD544901F0B4FF02F07CFD04464A4870
:104A400000F090FD0A2201462046FFF7DCFD04231A
:104A500003220221444800F0A7FD02F06BFD4A4901
:104A600001F09EFF05AB04AA03A93F4800F0B0FD8A
:104A700002F060FD0A220399FFF7A6FD02F05AFD3D
:104A80003B4901F08DFF02F055FD0A220499FFF722
:104A90009BFD02F04FFD364901F082FF02F04AFD16
:104AA0000A220599FFF790FD02F044FD2D4901F01F
:104AB0008AFF05212C4800F0AFFD02F03BFD334991
:104AC00001F06EFF02F036FD0446274800F0B0FD0D
:104AD0000A2201462046FFF796FD0621224800F0F3
:104AE000B3FD02F027FD2A4901F05AFF02F022FD32
:104AF00004461D4800F0ACFD0A2201462046FFF79F
:104B000082FD0721184800F0AFFD02F013FD214996
:104B100001F046FF02F00EFD0446134800F0B0FD20
:104B20000A2201462046FFF76EFD082134E000BF4F
:104B30009A9999999999B93F9A9999999999F13F1F
:104B4000CDCCCCCCCCCC004018E7032060E20320D5
:104B500048E30320A4E30320CD980D00DCE203200A
:104B6000DF980D00139E0D0020E30320EB980D004D
:104B7000B3990D00F9980D0006990D0016990D00D6
:104B800023990D002C990D0040990D005C990D00A2
:104B90006F990D0087990D00DC4800F07DFD02F053
:104BA000C9FCDB4901F0FCFE02F0C4FC0446D74816
:104BB00000F07EFD0A2201462046FFF724FD092170
:104BC000D24800F081FD02F0B5FCD24901F0E8FEC8
:104BD00002F0B0FC0446CD4800F082FD0A220146F6
:104BE0002046FFF710FD0A21C84800F085FD02F0BD
:104BF000A1FCC94901F0D4FE02F09CFC0446C34864
:104C000000F086FD0A2201462046FFF7FCFC0B213E
:104C1000BE4800F089FD02F08DFCC04901F0C0FEE5
:104C200002F088FC0446B94800F08AFD0A220146D9
:104C30002046FFF7E8FC0C21B44800F08DFD02F09F
:104C400079FCB74901F0ACFE02F074FC0446AF48B1
:104C500000F08EFD0A2201462046FFF7D4FC02F048
:104C600069FCB04901F09CFE02F064FC0446A748D0
:104C700000F067FE0A2201462046FFF7ABFD02F076
:104C800059FCA94901F08CFE02F054FC04469F48EF
:104C900000F05BFE0A2201462046FFF79BFD02F072
:104CA00049FCA24901F07CFE02F044FC044697480E
:104CB00000F04FFE0A2201462046FFF78BFD02F06E
:104CC00039FC9B4901F06CFE02F034FC04468F482D
:104CD00000F043FE0A2201462046FFF77BFD02F06A
:104CE00029FC944901F05CFE02F024FC044687484C
:104CF00000F037FE0A2201462046FFF76BFD02F066
:104D000019FC8D4901F04CFE02F014FC04467F486A
:104D100000F02BFE0A2201462046FFF75BFD02F061
:104D200009FC864901F03CFE02F004FC0446774889
:104D300000F01FFE0A2201462046FFF74BFD01212D
:104D4000724800F0BFFD0121704800F0C0FD012154
:104D50006E4800F0C1FD02F0EDFB794901F020FE44
:104D600002F0E8FB0446694800F007FE0A2201460B
:104D70002046FFF72FFD0021644800F0ADFD02F052
:104D8000D9FB704901F00CFE02F0D4FB04465F48E9
:104D900000F0F3FD0A2201462046FFF71BFD01212A
:104DA0005A4800F09EFD02F0C5FB674901F0F8FD8E
:104DB00002F0C0FB0446554800F0E3FD0A2201461C
:104DC0002046FFF707FD0021504800F08AFD02F061
:104DD000B1FB5E4901F0E4FD02F0ACFB04464B4838
:104DE00000F0CFFD0A2201462046FFF7F3FC012127
:104DF000464800F07BFD02F09DFB554901F0D0FDD7
:104E000002F098FB0446414800F0BFFD0A2201462B
:104E10002046FFF7DFFC00213C4800F067FD02F070
:104E200089FB4C4901F0BCFD02F084FB0446374885
:104E300000F0ABFD0A2201462046FFF7CBFC012122
:104E4000324800F058FD02F075FB434901F0A8FD1F
:104E500002F070FB04462D4800F09BFD0A2201463B
:104E60002046FFF7B7FC0021284800F044FD02F07F
:104E700061FB3A4901F094FD02F05CFB04462348D3
:104E800000F087FD0A2201462046FFF7A3FC01211E
:104E90001E4800F0F9FC01211C4800F0FAFC012139
:104EA0001A4800F0FBFC0021184800F0FCFC00212F
:104EB000164800F0FDFC0021144800F0FEFC02F052
:104EC00039FB274901F06CFD02F034FB04460F4822
:104ED00000F063FD0A2201462046FFF77BFC02F04A
:104EE00029FB204901F05CFD02F024FB0446074841
:104EF00000F057FD0A2201462046FFF76BFC02F046
:104F000019FB194901F04CFD30E000BF20E30320FC
:104F10009D990D00B5990D00CF990D00E5990D00F3
:104F2000FE990D00169A0D002D9A0D00449A0D0061
:104F30005B9A0D00749A0D008D9A0D00A69A0D00D3
:104F4000B79A0D00D09A0D00EA9A0D00069B0D004D
:104F5000239B0D003F9B0D005C9B0D00789B0D007B
:104F6000959B0D00AD9B0D00CB9B0D0002F0E2FA6E
:104F70000446854800F019FD0A2201462046FFF745
:104F800029FC02F0D7FA814901F00AFD02F0D2FAB9
:104F900004467D4800F00DFD0A2201462046FFF739
:104FA00019FC02F0C7FA7A4901F0FAFC02F0C2FAE1
:104FB0000446754800F001FD0A2201462046FFF72D
:104FC00009FC02F0B7FA734901F0EAFC02F0B2FA08
:104FD00004466D4800F0F5FC0A2201462046FFF722
:104FE000F9FB02F0A7FA6C4901F0DAFC02F0A2FA30
:104FF0000446654800F0E9FC0A2201462046FFF716
:10500000E9FB02F097FA654901F0CAFC02F092FA56
:1050100004465D4800F0DDFC0A2201462046FFF709
:10502000D9FB0021584800F06BFC9FED550B56480A
:1050300000F0D4FB02F07EFA594901F0B1FC02F015
:1050400079FA0446504800F09FFB0221204601F007
:10505000B5FD02F06FFA534901F0A2FC02F06AFAC2
:105060000446494800F0E2FB0A220146204601F0CE
:10507000B4FC204601F09BFC02F05CFA4A4901F0C6
:105080008FFC02F057FA012104463F4800F0A5FCCE
:105090000A2201462046FFF79DFB02F04BFA4349E6
:1050A00001F07EFC02F046FA01210446364800F089
:1050B00098FC0A2201462046FFF78CFB012211468C
:1050C000314800F022FC02F035FA394901F068FC61
:1050D00002F030FA012104462B4800F086FC0A2237
:1050E00001462046FFF776FB01221146264800F0D4
:1050F00011FC0021244800F0C2FB02F01BFA2D49EC
:1051000001F04EFC02F016FA04461F4800F015FCB0
:105110000A2201462046FFF75DFB1B4800F082FC97
:1051200002F06CFB01F0D4F902F068FB224B196825
:1051300001F009FA02F062FB2D21FEF7E6FF02F012
:105140005DFB0821FEF7E1FF02F058FB01F002FAD7
:105150000A2001F017F902F0EDF9184901F033FCCB
:10516000174800F0CAF80021154800F020F9012185
:10517000134800F014F919B0F0BD00BFAFF3008080
:105180006E861BF0F921094020E30320E99B0D0006
:10519000029C0D001B9C0D00349C0D00479C0D00D3
:1051A0005C9C0D00709C0D00879C0D009F9C0D0069
:1051B000B89C0D00D09C0D0064E20320E39C0D0020
:1051C000A0E3032073B500F0B9FE244C244D254E16
:1051D0000021012001F032F800232360A380A37195
:1051E00023814FF6FF736381022001F017F82A46EE
:1051F0001D49204602F028FB1C4C1D4800F044F8D5
:105200001C4800F0DDF8204602F02CF82A461A4926
:1052100020461A4C02F018FB304601F0D5F92A4618
:1052200021463046164E02F00FFB70230093A82251
:105230000123C021304601F00BFA3046114E2A46B8
:10524000214602F001FB304601F0BEF92A46214614
:10525000304602B0BDE8704002F0F6BA10E3032019
:10526000D8E20320A4E30320D9400D0048E3032043
:10527000A0E3032020E30320B9400D00B7400D0058
:10528000F8E20320BCE30320704710B50C4602F09F
:10529000B5FA5A2101F057F902F0B0FA0368214635
:1052A0009B68984702F0AAFA01F054F902F0A6FAB6
:1052B00001225A2101F040F902F0A0FA03685B696B
:1052C0009847C0B210BD38B514460D4602F096FAA4
:1052D0005A2101F038F902F091FA036829469B68D7
:1052E000984702F08BFA036821469B68984702F0C2
:1052F00085FABDE8384001F02DB910B5044602F03A
:105300007DFA01F0E5F800212046FFF7BEFF2046B8
:1053100000220121FFF7D7FF204600220221FFF7DC
:10532000D2FF204601220421FFF7CDFF20460022B4
:105330000521FFF7C8FF204600220D21FFF7C3FF1C
:10534000204600220E21FFF7BEFF204600220F213B
:10535000FFF7B9FF204600221021FFF7B4FF6422B7
:1053600020461321FFF7AFFF1A212046FFF78DFFDC
:105370001A2100F07F022046FFF7A5FF1D212046DD
:10538000FFF783FF40F02002D2B220461D21FFF735
:105390009AFF012010BD0431C9B2FFF794BF0A463D
:1053A0000321FFF790BF01220C21FFF78CBF0A46B3
:1053B0000121FFF788BF00F0C1BD00000000000020
:1053C00030B50BA5D5E90045C0E902450AA5D5E9E8
:1053D0000045C0E904450AA5D5E90045012202704F
:1053E00000224270C0E9064530BD00BFAFF3008027
:1053F0009F27F96C78D56E3F0E7F8FF27ACD6E3F86
:10540000200FD8309E9C6C3F38B514460D4602F0F4
:10541000F5F9532101F097F802F0F0F903682946F5
:105420009B68984702F0EAF9036821469B68984711
:1054300002F0E4F9BDE8384001F08CB810B504463C
:1054400002F0DCF901F044F8204600222D21FFF79C
:10545000DBFF204610222D21FFF7D6FF2046082231
:105460002D21BDE81040FFF7CFBF2DE9F0411646D2
:105470001F460C46054602F0C1F9532101F063F8BE
:1054800002F0BCF9036821469B68984702F0B6F920
:1054900001F060F802F0B2F9532101F054F802F083
:1054A000ADF93246532101F047F83C4602F0A6F927
:1054B00003681B69C7EB0408984738B102F09EF9EE
:1054C00003685B69984704F8010BEFE746451EBF88
:1054D000012328706B7002F091F9BDE8F04101F0F2
:1054E00039B8F8B504460F4616461D46062200F1A7
:1054F00020033221FFF7B9FF238C3B60638C3360BC
:10550000A38C2B60F8BD0A4601F108030432FFF7B3
:10551000E8BF2DE9F04385B001AF0D463946064698
:10552000FFF7F1FF08360024F6E8028957F8240057
:1055300003F080FD42464B4603F0E2FD0134032CAC
:10554000E5E80201F0D105B0BDE8F083002904DDF3
:10555000FE29D4BF0A46FF2200E00022D2B21D215C
:10556000FFF752BF07B501220DF107031D21FFF719
:105570007CFF9DF8070003B05DF804FB30B500F137
:1055800008032030F1E80245E3E802458342F9D1FF
:1055900030BD30B500F108032030F3E80245834206
:1055A000E1E80245F9D130BD70B504461646CAB2ED
:1055B0001E211D46FFF728FFF2B220461F21FFF7EC
:1055C00023FFEAB220462021BDE87040FFF71CBF50
:1055D000F7B50F4616461D4601220DF107031E21A1
:1055E0000446FFF742FF9DF807303B6020460DF16F
:1055F000070301221F21FFF738FF9DF807303360B2
:1056000001220DF1070320212046FFF72EFF9DF810
:1056100007302B6003B0F0BD002904DDFE29D4BFA4
:105620000A46FF2200E00022D2B22121FFF7ECBEA1
:1056300007B501220DF107032121FFF716FF9DF8A1
:10564000070003B05DF804FBCAB22221FFF7DCBEFD
:1056500007B501220DF107032221FFF706FF9DF890
:10566000070003B05DF804FB002904DDFE29D4BF68
:105670000A46FF2200E00022D2B22321FFF7C4BE77
:1056800007B501220DF107032321FFF7EEFE9DF878
:10569000070003B05DF804FB002904DDFE29D4BF38
:1056A0000A46FF2200E00022D2B22421FFF7ACBE5E
:1056B00007B501220DF107032421FFF7D6FE9DF85F
:1056C000070003B05DF804FB002904DDFE29D4BF08
:1056D0000A46FF2200E00022D2B22521FFF794BE45
:1056E00007B501220DF107032521FFF7BEFE9DF846
:1056F000070003B05DF804FB002904DDFE29D4BFD8
:105700000A46FF2200E00022D2B22621FFF77CBE2B
:1057100007B501220DF107032621FFF7A6FE9DF82C
:10572000070003B05DF804FB002904DDFE29D4BFA7
:105730000A46FF2200E00022D2B22821FFF764BE11
:1057400007B501220DF107032821FFF78EFE9DF812
:10575000070003B05DF804FB002904DDFE29D4BF77
:105760000A46FF2200E00022D2B22921FFF74CBEF8
:1057700007B501220DF107032921FFF776FE9DF8F9
:10578000070003B05DF804FB07B501220DF1070324
:105790002C21FFF76AFE9DF8070000F00F008DF83E
:1057A0000700063803F046FC9FED090B41EC110B96
:1057B00002F0B6F90022084B51EC100B03F0A0FCEC
:1057C00041EC100B03B05DF804FB00BFAFF30080A9
:1057D00000000000000000400000194037B5124BE7
:1057E0000022054651EC100B03F0B4FD03F038FF26
:1057F0000024401001D00134FBE7092C11DC012208
:105800002C2128460DF10703FFF72FFE9DF80720F6
:10581000063422F00F022243D2B22C212846FFF791
:10582000F3FD03B030BD00BF0000194007B50122F1
:105830000DF107033021FFF718FE9DF8070003B0B4
:105840005DF804FBF7B516461F4601220DF107036C
:1058500004460D46FFF709FE01229DF80730B240CD
:105860000FB1134301E023EA02038DF807309DF8DE
:10587000072029462046FFF7C7FD03B0F0BD0B46C1
:1058800007223121FFF7DEBF0B4606222721FFF753
:10589000D9BF0B4605222721FFF7D4BF0B460422B0
:1058A0002721FFF7CFBF0B4602222721FFF7CABFF0
:1058B0000B4601222721FFF7C5BF0B4600222721F7
:1058C000FFF7C0BF0B4607222721FFF7BBBF0B46E0
:1058D00003222721FFF7B6BF0B4603222A21FFF739
:1058E000B1BF0B4602222A21FFF7ACBF0B460122B3
:1058F0002A21FFF7A7BF0B4600222A21FFF7A2BFEC
:105900000B4604222C21FFF79DBF13460A462F2188
:10591000FFF798BF13460A462E21FFF793BF13B532
:1059200014460DF107030122FFF79FFD9DF80700C4
:10593000204100F0010002B010BD07223121FFF725
:10594000EEBF06222721FFF7EABF05222721FFF736
:10595000E6BF04222721FFF7E2BF02222721FFF73B
:10596000DEBF01222721FFF7DABF00222721FFF740
:10597000D6BF03222721FFF7D2BF03222A21FFF738
:10598000CEBF02222A21FFF7CABF01222A21FFF738
:10599000C6BF00222A21FFF7C2BF06222B21FFF734
:1059A000BEBF05222B21FFF7BABF04222B21FFF730
:1059B000B6BF02222B21FFF7B2BF01222B21FFF736
:1059C000AEBF00222B21FFF7AABF03222B21FFF736
:1059D000A6BF04222C21FFF7A2BF0A463021FFF701
:1059E0009EBF0A462F21FFF79ABF0A462E21FFF7D6
:1059F00096BF000038B5054601F09CFD084900F04F
:105A0000CFFF072401F096FD45FA04F1022201F0D0
:105A1000010100F0E2FF14F1FF34F3D238BD00BF02
:105A2000EC9C0D0037B5054601F084FD1C4900F0E3
:105A3000B7FF0DF10703012200212846FFF715FDEE
:105A40009DF80700FFF7D6FF01F074FD154900F03F
:105A5000BAFF1D2401F06EFD134900F0A1FF01F013
:105A600069FD1022214600F0B8FF01F063FD0F49E7
:105A700000F096FFE1B20DF1070301222846FFF77F
:105A8000F4FC9DF80700FFF7B5FF013401F052FD6B
:105A9000044900F098FF3A2CDCD103B030BD00BFC0
:105AA000EE9C0D00139E0D00F59C0D00F99C0D0061
:105AB00000F044BA0023036083624360C36403655B
:105AC0007047000038B50D4D04462946083001F0F6
:105AD0000DF9294604F1180001F008F9294604F1EE
:105AE0002C0001F003F9294604F13C0001F0FEF816
:105AF0002046FFF7DFFF204638BD00BF139E0D0094
:105B0000F8B5104D04460F460830294601F0EEF86E
:105B100004F12C06294604F1180001F0E7F82946A3
:105B2000304601F0E3F8294604F13C0001F0DEF8CC
:105B30002046FFF7BFFF3946304601F0EAF820461D
:105B4000F8BD00BF139E0D0010B50446006800F0BC
:105B5000F9FBA06A00F0F6FBE06C00F0F3FB04F147
:105B60003C0001F07CF804F12C0001F078F804F11D
:105B7000180001F074F804F1080001F070F82046F4
:105B800010BD38B50D46416804460131006800F08B
:105B9000E1FB206018B163685A1C6260C55438BDCF
:105BA0002DE9F04F4FF0FF3283B0064600AF1446A8
:105BB0009146904600F1180BD6F804A0551CAA4552
:105BC00061DD31684B5D2C2B10D1D31D23F0070311
:105BD000E846ADEB030D684603F098FD694606F113
:105BE000080001F096F8C546A8464AE0B8F1000F53
:105BF00047DDBBB9B9F1000F14DAC8EB0503063372
:105C000023F00703E946ADEB030D08F10103194446
:105C1000684603F07BFD6946584601F07AF8CD46A8
:105C2000A9462EE0B9F1000F2BDD002C28DAC8EBD5
:105C30000900441E042390FBF3F0002806DB03F068
:105C4000F9F90022134B03F0A9F805E003F0F2F98B
:105C50000022104B03F0A0F803F002FDC4EB800417
:105C600003344C44C4EB0A0210467A6000F062FB35
:105C70003168B06221447A6803F048FD544600E080
:105C800003D12A4698E7002000E001200C37BD46EA
:105C9000BDE8F08F0000E03F70B5044608301546BF
:105CA00001F06CF820B120462B46BDE87040184743
:105CB00070BD836A13F8210003EB8101CB7843EABE
:105CC0000063487843EA0043887843EA002070473D
:105CD000826A12F8210002EB810100234A7860F306
:105CE0001F6362F317438A7862F30F23CA7862F363
:105CF000070300EE103A704738B50D46016D0446B3
:105D00000431C06C00F026FBE064D0B1236D2A0E94
:105D1000C254E26C236D13442A145A70E26C236D52
:105D200013442A129A70236DE26C134404F13C0070
:105D3000DD70236D043323656921BDE8384001F02F
:105D400010B838BD38B5016D04460431C06C10EE92
:105D5000105A00F0FFFAE064E8B1226DC5F3076164
:105D60008154E16C226D0A44C5F307415170E16C26
:105D7000226D0A44C5F307219170E16C226D0A443B
:105D800004F13C00D570236D043323656621BDE822
:105D9000384000F0E6BF38BD2DE9F04F8BB0D0F8A9
:105DA0002C8000AF814640460E46FA60BB6003F08F
:105DB00035FD05460330800803F02CF90022404BE6
:105DC00002F0ECFF03F04CFCD9F83CA084005046F4
:105DD00003F024FD651B0134834604440130800830
:105DE00003F018F90022364B02F0D8FF03F038FC1C
:105DF000CBF1030BD9F850303B600BEB800B5C44CC
:105E00001C44E21D22F00702ADEB020D00212246E8
:105E1000684603F086FC404603F000FD414602461A
:105E2000684603F073FC404603F0F8FC0DEB0502F6
:105E30002C211154404603F0F1FC7860504603F0E9
:105E4000EDFC7A6802F1010EAE44024651460DEBBC
:105E50000E0003F05BFC404603F0E0FC8046504639
:105E600003F0DCFC404401303B68D9F84C10054499
:105E700005EB0B001A46684403F048FC3368FD68E4
:105E8000D3F838800F4B3B6104350FCD07F1140E6A
:105E9000AEE80F002B688EF800303A8907F1100148
:105EA0003046C047336822466946DB68304698472B
:105EB000336830461B6C98472C37BD46BDE8F08FE1
:105EC0000000E03F689D0D0000F038B808B5024BB7
:105ED0001B689B68019308BD4802030008B5024B8C
:105EE0001B681B69019308BD4802030008B5024BFB
:105EF0001B685B69019308BD4802030008B5024BAB
:105F00001B685B6C019308BD4802030008B5024B97
:105F10001B689B6C019308BD4802030008B5024B47
:105F20001B685B68019308BD1802030008B5024BAB
:105F30001B685B69019308BD1802030008B5024B9A
:105F40001B681B68019308BD2C02030008B5024BB7
:105F50001B685B68019308BD2C02030008B5024B67
:105F60001B689B68019308BD2C02030008B5024B17
:105F70001B681B6B019308BD2C02030008B5024B84
:105F80001B68DB68019308BD2802030008B5024BBB
:105F90001B689B69019308BD2802030008B5024BEA
:105FA0001B68DB69019308BD2802030008B5024B9A
:105FB0001B681B6A019308BD2802030008B5024B49
:105FC0001B685B6A019308BD2802030008B5024BF9
:105FD0001B689B6A019308BD2802030008B5024BA9
:105FE0001B68DB6A019308BD2802030008B5024B59
:105FF0001B681B6B019308BD2802030008B5024B08
:106000001B685B6B019308BD2802030008B5024BB7
:106010001B681B6C019308BD2802030008B5024BE6
:106020001B681B6D019308BD2802030008B5024BD5
:106030001B685B69019308BD6C02030008B5024B45
:106040001B685B69019308BD6402030008B5024B3D
:106050001B681B6A019308BD6402030008B5024B6C
:106060001B685B6A019308BD6402030008B5024B1C
:106070001B689B6A019308BD6402030008B5024BCC
:106080001B689B68019308BD6802030008B5024BBA
:106090001B68DB68019308BD6802030008B5024B6A
:1060A0001B685B68019308BD3802030008B5024B0A
:1060B0001B689B69019308BD3802030008B5024BB9
:1060C0001B68DB69019308BD3802030008B5024B69
:1060D0001B68DB6A019308BD3802030008B5024B58
:1060E0001B685B6B019308BD3802030008B5024BC7
:1060F0001B689B6B019308BD3802030008B5024B77
:106100001B68DB69019308BD3002030008B5024B30
:106110001B681B6A019308BD3002030008B5024BDF
:106120001B681B68019308BD3C02030008B5024BC5
:106130001B68DB68019308BD3C02030008B5024BF5
:106140001B681B69019308BD3C02030008B5024BA4
:106150001B685B69019308BD3C02030008B5024B54
:106160001B689B69019308BD3C02030008B5024B04
:106170001B68DB69019308BD3C02030008B5024BB4
:106180001B681B6A019308BD3C02030008B5024B63
:106190001B689B6A019308BD3C02030008B5024BD3
:1061A0001B681B68019308BD4C02030008B5024B35
:1061B0001B685B68019308BD4C02030008B5024BE5
:1061C0001B681B69019308BD4C02030008B5024B14
:1061D0001B685B69019308BD4C02030008B5024BC4
:1061E0001B689B69019308BD4C02030008B5024B74
:1061F0001B68DB69019308BD4C02030008B5024B24
:106200001B681B6A019308BD4C02030008B5024BD2
:106210001B685B6A019308BD4C02030008B5024B82
:106220001B685B68019308BD2002030008B5024BA0
:106230001B685B69019308BD2002030008B5024B8F
:106240001B68DB6A019308BD2002030008B5034BFD
:106250001B68D3F88830019308BD000020020300BA
:1062600008B5034B1B68D3F89430019308BD0000B8
:106270002002030008B5024B1B68DB6B019308BDCD
:106280004402030008B5024B1B681B68019308BD5C
:106290004002030008B5024B1B685B68019308BD10
:1062A0004002030008B5024B1B689B68019308BDC0
:1062B0004002030008B5024B1B68DB68019308BD70
:1062C0004002030008B5024B1B681B69019308BD1F
:1062D0004002030008B5024B1B685B69019308BDCF
:1062E0004002030008B5024B1B689B69019308BD7F
:1062F0004002030008B5024B1B68DB69019308BD2F
:106300004002030008B5024B1B681B6A019308BDDD
:106310004002030008B5024B1B681B6B019308BDCC
:106320004002030008B5024B1B685B6B019308BD7C
:106330004002030008B5024B1B681B68019308BDAF
:106340001C02030008B5024B1B685B68019308BD83
:106350001C02030008B5024B1B689B68019308BD33
:106360001C02030008B5024B1B68DB68019308BDE3
:106370001C02030008B5024B1B68DB6B019308BDD0
:106380001C0203000021FFF751BF10B5044600684E
:1063900008B1FFF7BBFD204610BD000010B5064C4C
:1063A000002320462360FFF7A9FD2046034A044945
:1063B000BDE8104001F048BAD4E30320D8E203203E
:1063C0008B630D0010B58368044613B103220146A8
:1063D0009847204610BD002211464068FFF792BF43
:1063E000002211464068FFF79DBF00224068FFF77A
:1063F00091BF002281F001014068FFF77BBF0023BD
:106400001A4619464068FFF76DBF00231A46194621
:106410004068FFF75FBF002211464068FFF752BF98
:10642000002211464068FFF73DBF0022022140686C
:10643000FFF740BF00231A464068FFF72BBF00005C
:10644000024B03225A60024A1A607047D8E30320C5
:106450000C9D0D007047F8B5064615460C468F1882
:10646000BC4206D0336814F8011B9B68304698473D
:10647000F6E72846F8BD0022007CFFF797BD002113
:10648000007CFFF79BBD0021007CFFF79FBD002132
:10649000007CFFF7A3BD0021007CFFF7A7BD10B56E
:1064A0001421044601F0D5F9204610BD10B504466C
:1064B000002363604FF47A73A360044B2174084691
:1064C00023601146FFF7A2FD204610BD409D0D0040
:1064D00000231A461946007CFFF750BD70B50C46E4
:1064E00086B0142506462A46002101A803F019F9B2
:1064F00023788DF8083063680393E36804930022DF
:10650000237A307CADF8045001A90593FFF786FD8E
:1065100006B070BD1FB500338DF800104FF0640158
:10652000039118BF0123694601928DF80830FFF7E7
:10653000D5FF05B05DF804FB0123FFF7EBBF002298
:10654000007CFFF723BDC9B2FFF7F9BF0022007C32
:10655000FFF724BD0121FFF7F9BF0021007CFFF701
:106560004DBDF0B5037D062B8DB00E4600F104073E
:106570004FF0000402D000F1080518E00CAD3946D8
:1065800005F8304D2F232A460A20FFF757FD2846ED
:1065900003F044F933680246DB68294630469847E1
:1065A0000FE024B12E21304600F0FEF9044415F826
:1065B000011D0A22304600F010FABD420444F0D119
:1065C00020460DB0F0BD000010B5054B0446112269
:1065D00040F8043B002103F0A4F8204610BD00BFA2
:1065E000689D0D000346074A10B543F8042B01F1DE
:1065F000100251F8044B43F8044B9142F9D10A7848
:106600001A7010BD689D0D00037D042B01D14068F8
:1066100008E0062B0AD1436853B9836843B9C368BD
:1066200033B90069003018BF01207047002070475F
:106630000120704710B59DF8084044EA032343EA5F
:10664000024242EA016104234160037510BD00006B
:1066500037B5044D05609DF818500095FFF7EAFF27
:1066600003B030BD689D0D0037B50D788B784A7842
:10667000C97800912946FFF7DDFF03B030BD000067
:10668000014B024A1A607047E0E30320E79D0D00CA
:10669000002211464068FFF735BE002211464068CF
:1066A000FFF740BE00224068FFF734BE002281F0B1
:1066B00001014068FFF71EBE00231A460121406811
:1066C000FFF710BE00231A4619464068FFF702BEC6
:1066D000002211464068FFF7F5BD002211464068D0
:1066E000FFF7E0BD002202214068FFF7E3BD002371
:1066F0001A464068FFF7CEBD38B5054688B1046834
:106700004CB1A3681BB103222146204698471021B3
:10671000204601F09EF828461421BDE8384001F0DB
:1067200098B838BD10B103685B681847704710B55A
:1067300003680446BBB15868FFF7C8FB78B9236803
:106740005A7C12B95868FFF7C9FB23685868FFF7ED
:10675000CDFB20680023236028B1FFF7CDFF206820
:1067600008B1FFF7C9FF204610BD38B50446D0F880
:10677000C40108B1FDF795FCD4F8C00108B1FFF7DA
:10678000C5FBD4F8BC5135B12846FFF7D0FF042132
:10679000284601F05EF8206808B1FFF7C3FF2046E5
:1067A00038BD000010B5044B044640F8083BFFF725
:1067B000DCFF204610BD00BF549E0D0038B50E4CC6
:1067C0000E4B23600025022304F5E4706360A5608E
:1067D000C4F8C451C4F8C851FFF790FB084BC4F883
:1067E000CC5184F8D05123602046064A0649BDE8C2
:1067F000384001F029B800BFE4E30320889E0D0073
:10680000549E0D00D8E20320A5670D0000231A4610
:106810004068FFF73FBD002202214068FFF74ABDF4
:10682000002211464068FFF73DBD00221146406836
:10683000FFF748BD00231A4619464068FFF74ABDD6
:1068400000231A4619464068FFF74CBD002281F02C
:1068500001014068FFF74EBD00224068FFF75ABDB6
:10686000002211464068FFF75DBD002211464068D6
:10687000FFF748BD2DE9F043002495B016460D46BC
:106880000746FFF7A1FE214620220CA8009402F043
:1068900048FF40230C9321466B460CAA3046FFF775
:1068A000F5FB0446002844D1024601216868FFF741
:1068B00009FD0221804622466868FFF703FD009E1D
:1068C00081462146002E34D0002932D17368022B34
:1068D00002D00A2B09D02AE0B8F1000F27D0716945
:1068E00038460431FFF7C0FE20E0B9F1000F1ED09A
:1068F0007469112201A802F014FF06238DF81430E8
:1069000001AD04F108031834186859682A4603C217
:106910000833A3421546F7D101A906A807ADFFF732
:1069200061FE0FCD3C1D0FC42B6823700121F66959
:10693000C8E70098FFF7A2FB384615B0BDE8F08322
:10694000024B034A1A6000225A607047B8E50320E0
:10695000889E0D00F8B506460D468F180024BD42EE
:106960000CD0336815F8011B9B6830469847002807
:1069700001DB0444F3E7002C08BF04462046F8BDC1
:1069800070B505460C46084649B102F047FF2B6832
:10699000024621462846DB68BDE87040184770BDB6
:1069A00008B5FFF7EDFF08BD03689B68184738B5C9
:1069B0000D210546FFF7F8FF0A2104462846FFF798
:1069C000F3FF204438BD38B50546FFF7D9FF04462C
:1069D0002846FFF7ECFF204438BD30B58BB00B469E
:1069E00000218DF82410012A98BF0A220DF12304FA
:1069F000B3FBF2F505FB123303F0FF03092B94BF41
:106A000030333733DBB2214604F801392B46002DF1
:106A1000EED1FFF7B5FF0BB030BD00002DE9F04718
:106A200057EC106B82460D4610EE102A3B4610EED6
:106A3000100A394602F0FEFD08B14E4912E027F077
:106A400000494FF0FF324C4B3046494602F0F2FD10
:106A500068B94FF0FF32484B3046494602F0CCFD52
:106A600028B946495046FFF78BFFBDE8F0874FF045
:106A70006042434B3046394602F0D2FD08B14149ED
:106A8000F0E74FF06042404B3046394602F0AAFD35
:106A90000028F4D1002200233046394602F0A2FD3E
:106AA00040B12D215046FFF77FFF07F10043044618
:106AB0001F4600E0044635494FF0000800205FFA09
:106AC00088F39D4206D90022314B02F043FC08F1C5
:106AD0000108F4E732463B4602F060F90F460646ED
:106AE00002F0E6FD0A22014680465046FFF775FF98
:106AF0000444E5B3404602F08DFA02460B463046A8
:106B0000394602F049F906460F4650462149FFF73B
:106B100037FF044400221E4B3046394602F0F0FA9B
:106B200006460F4602F09CFDB0F1000907DA2D2160
:106B30005046FFF739FFC9F10001804602E049469F
:106B40004FF000080A225046FFF747FF4044044434
:106B5000484602F06FFA02460B463046394602F0CC
:106B60001BF9013D15F0FF0506460F46D2D1204620
:106B7000BDE8F087B49E0D00FFFFEF7FBE9E0D00C5
:106B8000FFFFEF41B89E0D00FFFFEFC10000E03FA7
:106B900000002440BC9E0D0038B5044610EE100ADB
:106BA000CDB202F059FA41EC100B29462046BDE85F
:106BB0003840FFF733BFC9B2FFF730BF38B5C9B2AD
:106BC0000546FFF72BFF04462846FFF7F0FE20445A
:106BD00038BD38B5044610EE100A0D4602F03CFAF6
:106BE00041EC100B29462046BDE83840FFF7E6BFD0
:106BF00010B5044630B102F0C5FD90FBF4F303FB81
:106C0000140010BD10BD884210B5044604DA081AFD
:106C1000FFF7EEFF204410BD10BD10B50446FFF78E
:106C2000D1FB204610BD00000348044A044900235C
:106C3000836000F009BE00BFC0E50320D8E2032056
:106C40001B6C0D0010B5044601700846FFF756FA9C
:106C500000236360204610BD0078FFF757BA10B5D7
:106C600004460068FFF76EFB204610BD10B50446D1
:106C7000006808B1FFF766FB00232360A360636030
:106C800010BD38B504460D4600680131FFF762FBC0
:106C900010B184E82100012038BD10B50368044616
:106CA00013B143688B4207D22046FFF7EAFF20B1B9
:106CB000A3680BB922681370012010BD70B50E4691
:106CC000114604461546FFF7E8FF18B92046FFF7BE
:106CD000CDFF09E02A463146A560206802F016FD86
:106CE0002268A3680021D154204670BD38B5002326
:106CF000044603604360836003730D4639B1084660
:106D000002F08CFD294602462046FFF7D7FF2046B9
:106D100038BD38B505460C4641B1084602F07EFD47
:106D2000214602462846FFF7C9FF01E0FFF79EFF14
:106D3000284638BD70B504460E4609B9002070BD1E
:106D40006AB18368D5182946FFF7A7FF0028F5D058
:106D50002068A3683146184402F058FDA560012060
:106D600070BD07B500238DF80410012201A98DF82C
:106D70000530FFF7DFFF03B05DF804FB08B582685C
:106D80000B4612B919B9012008BD11B9036818786A
:106D900002E0006802F030FDB0FA80F0400908BD62
:106DA00010B5094C00204FF6FF732060A080A07141
:106DB00020816381FFF732FA2046044A0449BDE886
:106DC000104000F041BD00BFD0E50320D8E2032011
:106DD000D9400D00024B1A68024B1A60704700BF81
:106DE00068E20320DCE5032010B40468246BA446A9
:106DF0005DF8044B604703689B6C1847808E7047B2
:106E0000028FC08E101A704713B502AB026803F8E8
:106E1000011DD46819460122A04702B010BD10B56B
:106E200003681B690446984728B1E38EE26B591C3E
:106E3000E186D05C10BD4FF0FF3010BD10B5036887
:106E40001B690446984718B1E38EE26BD05C10BD15
:106E50004FF0FF3010BD704710B403460846DC6B9E
:106E6000D98E1A8F0368521ADB6821445DF8044BEF
:106E70001847A0F11000FFF7EFBFF0B503688DB021
:106E80001C265B6A04460F46154698470123324686
:106E9000002105A8029302F044FC8DF814603846E6
:106EA0000A268DF81560FFF7E1F81122ADF81600FB
:106EB00002213046FFF71AF90028606124DB042222
:106EC000009202AB40F6FF71FFF7F0F8E0B995B120
:106ED0000390ADF8100003A9E8B2FFF7A7F898B93E
:106EE0000623009341F20B0203AB40F6FF71606989
:106EF000FFF7DCF840B91C2205A96069FFF7CEF85E
:106F000010B96564012004E0236820465B6A984755
:106F100000200DB0F0BD10B504464069002801DB2B
:106F2000FFF7CCF84FF0FF3363610023E38623873C
:106F300010BD38B5C36B0546C08E13B12C6C241A36
:106F400000E01C46944228BF14462246184402F032
:106F5000DDFBEB8E2344EB86204638BD70B503681D
:106F60001B6904460E461546984788B1236820469B
:106F70001B699847E38EE16B8542A8BF054619441B
:106F80002A46304602F0C2FBE38E2B44E38601E042
:106F90004FF0FF35284670BD70B50446054B44F8E8
:106FA000043B01F1200506460FCD0FC42B6823706A
:106FB000304670BD689D0D00F0B59446026889B0FA
:106FC000976A0A4A02921D1D8E4606460FCD03ACF3
:106FD0000FC42B682370BDF838300093624602ABB3
:106FE00071463046B84709B0F0BD00BF689D0D003E
:106FF000F0B50368B0F836E09F6A0D4B89B000F138
:107000002006044602930FCE03AD0FC533682B70E4
:10701000A38E0093724602ABE16B2046B84723680B
:107020000546DB6920469847284609B0F0BD00BFF9
:10703000689D0D00F0B54378022B8DB005460C46D7
:10704000174601D1011D33E00A2B35D11122002151
:1070500001A802F066FBAB6843B9EB6833B94FF6A1
:10706000FF702E69FEF7F2FF86421FD005F108037C
:1070700001AE05F1180E18685968324603C208338C
:1070800073451646F7D1062301A906A807AE8DF869
:107090001430FFF7A7FA0FCE04340FC433682370FF
:1070A00057B16888FEF7DAFF388005E005F1140172
:1070B0002046FFF7D9FAF3E70DB0F0BD2DE9F04116
:1070C0008EB00EAB002506461746084643F8345DE1
:1070D0002A462946FEF7DAFF00281FDB019BFBB199
:1070E0005B69EBB102A8FFF76FFA019B2A4658696A
:1070F00002A9FFF79FFF02A8FFF786FA80B1336865
:1071000003ADD3F838800B4B08930FCD09AC0FC4F7
:107110002B6823703A4608A93046C047044601E070
:107120004FF0FF340198FEF7A9FF20460EB0BDE8EE
:10713000F08100BF689D0D002DE9F047D0F8148064
:10714000B8F1000F8CB005460C461746994600DB97
:1071500011B94FF0FF3035E04FF01C0A05AE524632
:107160000021304602F0DDFACDF808A0B9F1000F99
:1071700014D04FF47A72B9FBF2F1039102FB119132
:107180004A4308230492009341F2060203AB40F6FF
:10719000FF714046FEF78AFF08B113E0082002ABFA
:1071A00001932146034600963A466869FEF78EFF32
:1071B000041E06DB05F1340205F11C013046FFF721
:1071C00039FF20460CB0BDE8F08738B505461446B7
:1071D0002B7D062B084611D11C2313700A235370F4
:1071E000FEF744FF083424F8060C2B1D143553F821
:1071F000042B44F8042BAB42F9D138BD042B0AD13F
:107200001023137002235370FEF730FF608068680C
:10721000FEF71CFF606038BD2DE9F0438BB003AC76
:107220001C25994606460F46904600212A462046D0
:1072300002F077FA2246BDF848104846FFF7C5FF2E
:107240009DF80D3043B18DE83000002342463946A9
:107250007069FEF743FF01E04FF0FF300BB0BDE86F
:10726000F083000038B54FF47A7383600B4B03F161
:1072700008026C33002503614FF0FF33044645607C
:10728000026043611C30FFF79FF94FF40073E586FD
:107290002587E56323646564204638BDEC9E0D00B8
:1072A00010B590F84830044623B1C06B10B10121ED
:1072B00000F0CFFA0023E36384F848302364E386C8
:1072C000238710BD70B5044616460D46FFF7E8FF4C
:1072D0000023E66323643EB935B12846FCF7DDFEA2
:1072E0000123E06384F84830E36B03B12564206C2C
:1072F000003018BF012070BDF8B51746C26B0546B7
:107300000C461AB9016C09B1FFF7DCFF04340FCC4D
:1073100005F120060FC6236833700023AF86EB8685
:107320002B87286CF8BD70B5C26B04460E461AB99F
:10733000016C09B1FFF7C6FFE16B0022E2862287EC
:1073400049B1226C3AB1236820461D6B3346A847E9
:107350000028C8BF2087236820461B69BDE870400D
:10736000184770474174704708B5007CFEF70EFF60
:1073700020EAE07008BD08B5007CFEF7DFFE20EAD9
:10738000E07008BD08B5007CFEF7E8FE30EA20009A
:1073900028BF4FF0FF3008BD08B5007CFEF7D6FED1
:1073A00030EA200028BF4FF0FF3008BD007CFEF718
:1073B000DDBE10B51421044600F04BFA204610BD86
:1073C00070B5457C04460E4625B9007CFEF7DEFE0E
:1073D000002805DD3146207CBDE87040FEF7A6BEE2
:1073E000284670BD10B5044608461146002262606A
:1073F0004FF47A72A260054A2260012220746274FE
:107400001A46FEF78BFE204610BD00BF649F0D009C
:10741000007CFEF7B3BE000038B50C4D296811F0B2
:10742000010411D12846FCF73EFE68B1084A094B19
:1074300009482146FFF7D6FF2846FCF739FE074AE0
:107440000749054800F000FA034838BD78E60320F4
:107450007CE60320F4E50320E0E50320D8E20320E6
:1074600063730D0041747047704708B50021007CBC
:10747000FEF7B4FE30EA200028BF4FF0FF3008BD11
:1074800008B50121007CFEF7A9FE30EA200028BFE4
:107490004FF0FF3008BD08B5007CFEF797FE20EAEC
:1074A000E07008BD08B5007CFEF788FE20EAE070B9
:1074B00008BD007CFEF7A2BE10B51421044600F002
:1074C000C8F9204610BD38B50446007C0D46FEF7CD
:1074D0007DFE002801DC607C28B12946207CFEF777
:1074E00085FE20EAE07038BD10B5044600236360D5
:1074F0004FF47A73A360054B23600123084621747F
:1075000063741146FEF74AFE204610BD949F0D009D
:107510000022007CFEF74ABE007CFEF777BEFFF734
:10752000FBBF10B514220446002102F0FAF82046F1
:1075300010BD000030B50E4D87B001A8FFF7F1FF78
:10754000296811F0010410D12846FCF7ACFD60B1A8
:1075500001AA21460748FFF7C7FF2846FCF7A8FD08
:10756000054A0649034800F06FF9024807B030BDEC
:1075700000E7032004E70320D8E2032069740D002C
:10758000002211464068FEF79DBE00221146406869
:10759000FEF7B8BE002211464068FEF7C3BE0022C7
:1075A0004068FEF7B7BE002281F001014068FEF797
:1075B000A1BE00231A4619464068FEF793BE002379
:1075C0001A4619464068FEF785BE002211464068FB
:1075D000FEF768BE002202214068FEF76BBE002362
:1075E0001A464068FEF756BE024B04225A60024A11
:1075F0001A60704718E70320C49F0D0008B50C4BB4
:1076000033B1FFF797FF03681B699847002809DC2F
:10761000084B63B1FFF700FF03681B699847002818
:1076200003DC08BDAFF30080F2E7AFF3008008BDD4
:10763000000000000000000008B5FFF7DFFFFEF7C4
:1076400075FC014B186008BD34E703200248034A6B
:107650000349121A02F05AB800F4032004F403207C
:10766000C0A00D0007B5002300931A466FF0770104
:10767000FEF7F6FD03B05DF804FB000007B5438894
:107680000A2B08D0502B09D1094B1B683BB103B022
:107690005DF804EB1847FFF7E5FF06E000230093D1
:1076A0001A466FF07701FEF7DBFD03B05DF804FBCF
:1076B00020E7032038B5104C104D2368AB42104B27
:1076C0000CBF012200221A7002D0FFF7BFFF256015
:1076D000FEF724FC044602F02DF80A4B13B12046B5
:1076E000AFF3008000210748FEF7C4FD00210648E3
:1076F000BDE83840FEF7AABD00F403201E1C279AFF
:1077000024E70320000000007D760D0070B5184EC0
:10771000316811F0010504460AD13046FCF7C3FC7C
:1077200030B129461348FFF78DFA3046FCF7C0FC0C
:107730001048FFF791FA28B1A4F10B03022B01D8EE
:10774000002070BD00F05AF8FEF707FF08B1012CC9
:10775000F6D9FFF761FEFFF75BFE18B1A4F109034C
:10776000012BEDD9232C8CBF0020012070BD00BF60
:1077700028E703202CE70320232838B504460D46CC
:107780000AD8FF2908D0FFF7C1FF28B129462046B3
:10779000BDE83840FEF7E2BB38BD0D2810B5044601
:1077A0009CBF0E34A4B22046FFF7B0FF50B10321B6
:1077B0002046FEF7CBFB032804D12046BDE810404D
:1077C000FEF7D4BB002010BD70B5044614252A4630
:1077D000094E002101F0A5FF258020253146A56036
:1077E0002561284600F04FF831466060284600F0D9
:1077F0004AF8E060204670BDF09F0D0030B50E4D98
:10780000296811F0010487B013D12846FCF74BFC1E
:1078100078B101A8FFF7D8FF01AA21460748FEF773
:1078200045FE2846FCF744FC054A0649034800F09B
:107830000BF8024807B030BD38E703203CE70320CF
:10784000D8E2032055640D000B460146184601F0AE
:107850004FBFFCF724BC0000024B1868BFF35F8FDA
:10786000704700BF50E7032010B5002814BF04463E
:1078700001242046FEF75EFD20B9FFF7EDFF08B1B9
:107880008047F6E710BDFFF7EFBF0000244B1A68F2
:10789000D0075CBF01221A60224B1A68D1075CBF77
:1078A00001221A60204B1A68D2075CBF01221A60BD
:1078B0001E4B1A68D0075CBF01221A601C4B1A6865
:1078C000D1075CBF01221A601A4B1A68D2075CBF4D
:1078D00001221A60184B1A68D0075CBF01221A6097
:1078E000164B1A68D1075CBF01221A60144B1A6844
:1078F000D2075CBF01221A60124B1A68D0075CBF26
:1079000001221A60104B1A68D1075CBF01221A606D
:107910000E4B1A68D2075CBF01221A60704700BF85
:1079200080E703207CE7032078E7032074E7032047
:1079300070E703206CE7032068E7032064E7032077
:1079400060E703205CE7032058E7032054E70320A7
:10795000184B1A68D1075CBF01221A60164B1A68CF
:10796000D2075CBF01221A60144B1A68D0075CBFB3
:1079700001221A60124B1A68D1075CBF01221A60FB
:10798000104B1A68D2075CBF01221A600E4B1A68AE
:10799000D0075CBF01221A600C4B1A68D1075CBF8C
:1079A00001221A600A4B1A68D2075CBF01221A60D2
:1079B000704700BFA0E703209CE7032098E703205F
:1079C00094E7032090E703208CE7032088E7032057
:1079D00084E70320184B1A68D1075CBF01221A60A4
:1079E000164B1A68D2075CBF01221A60144B1A6842
:1079F000D0075CBF01221A60124B1A68D1075CBF26
:107A000001221A60104B1A68D2075CBF01221A606B
:107A10000E4B1A68D0075CBF01221A600C4B1A6823
:107A2000D1075CBF01221A600A4B1A68D2075CBFFB
:107A300001221A60704700BFC0E70320BCE70320A3
:107A4000B8E70320B4E70320B0E70320ACE7032046
:107A5000A8E70320A4E70320244B1A68D0075CBFE3
:107A600001221A60224B1A68D1075CBF01221A60FA
:107A7000204B1A68D2075CBF01221A601E4B1A689D
:107A8000D0075CBF01221A601C4B1A68D1075CBF8B
:107A900001221A601A4B1A68D2075CBF01221A60D1
:107AA000184B1A68D0075CBF01221A60164B1A687F
:107AB000D1075CBF01221A60144B1A68D2075CBF61
:107AC00001221A60124B1A68D0075CBF01221A60AB
:107AD000104B1A68D1075CBF01221A600E4B1A685E
:107AE000D2075CBF01221A60704700BFF0E7032095
:107AF000ECE70320E8E70320E4E70320E0E70320C6
:107B0000DCE70320D8E70320D4E70320D0E70320F5
:107B1000CCE70320C8E70320C4E7032000000000EF
:107B20002DE9F04F2DED028BDFF824A38BB057EC3D
:107B3000106B55EC114B00F08FF99AF90080B0EE04
:107B4000408AF0EE608AB8F1FF3F48D022462B46CB
:107B50002046294601F06EFD834600283FD132467B
:107B60003B463046394601F065FD8146002840F02D
:107B70009080304639460022002301F029FD00287C
:107B800036D0002200232046294601F021FD8346FD
:107B9000B8B19FEDA57B0122A94BCDF820900092B2
:107BA000CDE90267CDE904458DED067B0193B8F17F
:107BB000000F5BD09FED9E0B0BB0BDEC028BBDE8C0
:107BC000F08F45EC104B00F0A7FF40B100220023DE
:107BD0002046294601F006FD002840F0C580B0EEA1
:107BE000480AF0EE680A0BB0BDEC028BBDE8F08FDE
:107BF000B0EE480AF0EE680A00F08EFF80460028DA
:107C000061D04FF000084FF0000951EC180B4246CC
:107C10004B4601F0DDFC0028E1D047EC106B00F092
:107C20007BFF0028DBD045EC104B00F075FF0028EF
:107C3000D5D09AF90030824A019204210022022B09
:107C4000CDE90267CDE90445CDE9068900910892A6
:107C500003D0684600F068FF70B9FEF78BFB222363
:107C6000036009E09FED707B8DED067B684600F0B8
:107C70005BFF002800F08E80089B1BB1FEF77AFBAB
:107C8000089B03609DED060B0BB0BDEC028BBDE8BD
:107C9000F08F002200232046294601F099FC00289D
:107CA0009DD09FED630B664BCDF820B00122B8F15B
:107CB000020FCDE90267CDE904458DED060B8DE895
:107CC0000C00D3D18FE747EC106B00F025FF0028A4
:107CD00097D045EC104B00F01FFF002891D053ECDB
:107CE000182B18EE100A194601F0A4FC00287CD1CC
:107CF00003239AF900800093514B0890CDE9026765
:107D0000CDE904450193B8F1000F48D1DFF8449163
:107D10004FF060480022002330463946CDE90689FD
:107D200001F060FC002894D00022464B20462946F2
:107D300001F0E6F904460D4645EC104B00F000FF5B
:107D4000204653EC102B294601F042FC002849D173
:107D50003D4B9AF900804FF06042CDE90623B8F11F
:107D6000020F7FF476AF78E7354A9AF90030CDF804
:107D700020B00121CDE90267CDE904458DE8060078
:107D8000002B3FF46FAF31490020022BCDE90601F3
:107D90007FF46CAFFEF7EEFA212303606CE79FEDF2
:107DA000267B00220023304639468DED067B01F00C
:107DB00019FC0028D3D00022224B2046294601F08E
:107DC0009FF904460D4645EC104B00F0B9FE2046E5
:107DD00053EC102B294601F0FBFB18B91B4B00227A
:107DE000CDE906239AF90080B9E7154B9AF900907E
:107DF000CDF820800122CDE90267CDE904458DE868
:107E00000C00B9F1000F3FF42DAF00220023104603
:107E1000194601F09FFAB9F1020FCDE90601B9D078
:107E200024E700BFAFF30080000000000000000066
:107E3000000000000000F03F000000000000F07FA4
:107E4000F49F0D000000E03FFFFFEFC70000F0FFD0
:107E50006CE20320FFFFEF472DE9F04F51EC110BCF
:107E600021F0004858EA000493B03CD053EC102BAA
:107E70006D4E23F00044B44210EE10AA1D462BDCD8
:107E8000894611EE10EA26D0B04525DC664EB04595
:107E900077D0002D16461F46CDE9000175DB4FF067
:107EA000000BBEF1000F2DD15F4B984500F089808B
:107EB0005E4B98455ED0B9F1804F00F0DE835C4B9D
:107EC00099451FD1002D1DDB47EC106B13B0BDE8A9
:107ED000F04F00F049BD5AB104F1404404F580145C
:107EE00054EA0A0306D19FED4A0B13B0BDE8F08FA8
:107EF000A045CBDD4F4813B0BDE8F04F00F018BEF1
:107F00004FF0000B47EC106B00F0FEFD51EC100B36
:107F1000BAF1000F1ED0ED0F05F1FF3A5BEA0A033C
:107F200063D0454B984540F38D8003F10473984529
:107F300040F33884414B9C4262DDB9F1000F62DDB1
:107F400035A3D3E900231046194601F0D9F841ECD6
:107F5000100BCAE724B1354B25F040429A42DAD1E2
:107F6000B9F1000FC0F2CB83002DC0F2748341EC55
:107F7000100BBAE7B9F1000FC0F27A8447EC106B2E
:107F8000B3E7BEF1000F84D0A6E72D4B984529DC5E
:107F9000A3F15473984582DD4FEA2853A3F2FF33CF
:107FA000142B40F37F84C3F134032EFA03F202FA58
:107FB00003F39E457FF473AF02F00102C2F1020B9E
:107FC0006FE704F1404303F5801353EA0A038AD0B4
:107FD0001A4B9C4240F38583B9F1000F13DB9DEDF2
:107FE000000B82E74FF0020B5BE732463B46104640
:107FF000194600F0D1FE02460B4601F0ABF9B6E798
:10800000B9F1000F9CDB9FED060B6EE7AFF300802C
:10801000000000000000F03F9C7500883CE4377EC3
:1080200000000000000000000000F07F0000F03FB2
:108030000000E03FF89F0D000000E041FFFFEF3F30
:10804000FFFF3F43B4F5801F4FF0000205DAD64B27
:1080500001F056F86FF034020C462315D34EC4F3EA
:108060001304A3F2FF33134444F07F55B4421A467D
:108070000D9345F4401540F34983CD4B9C4240F3AA
:108080002D849FEDB37B8DED087B8DED0E7B9FEDF9
:10809000B27B13468DED067B01330D93A5F580155C
:1080A0004FF00008DDE906232946CDE90A0100F07A
:1080B00073FEDDE9062306460F46DDE90A0100F0FE
:1080C0006DFE02460B460020BA4901F043F9034613
:1080D0000C46CDE9103402460B463046394601F0D5
:1080E0000FF86B1043F0005303F5002303EB080572
:1080F0000A4600230146CDE902120293DDE9028916
:108100000024CDE904122B4622464046494600F0A1
:10811000F7FF02460B463046394600F03DFEDDE9EA
:10812000062306460F462046294600F035FE024645
:108130000B46DDE90A0100F02FFE42464B4600F0F7
:10814000DFFF02460B463046394600F025FEDDE9EA
:10815000102300F0D5FFDDE90445CDE906012246F4
:108160002B462046294600F0CBFF7DA3D3E9002310
:1081700004460D4600F0C4FF7BA3D3E9002300F0C2
:108180000DFE22462B4600F0BBFF79A3D3E9002366
:1081900000F004FE22462B4600F0B2FF76A3D3E99E
:1081A000002300F0FBFD22462B4600F0A9FF74A33C
:1081B000D3E9002300F0F2FD22462B4600F0A0FF99
:1081C00071A3D3E9002300F0E9FD224606460F46DD
:1081D0002B462046294600F093FF02460B463046C8
:1081E000394600F08DFF424604460D464B46DDE918
:1081F000040100F0D3FDDDE9062300F081FF2246F3
:108200002B4600F0CBFD424606460F464B46404605
:10821000494600F075FF0022674BCDE90A0100F0E6
:10822000BDFD32463B4600F0B9FD02980D460446BE
:1082300022462B464046494600F062FF0022804617
:1082400089465D4B2046294600F0A6FDDDE90A235C
:1082500000F0A2FD02460B463046394600F09CFD78
:10826000DDE9042300F04CFF224606460F462B466C
:10827000DDE9060100F044FF02460B463046394670
:1082800000F08CFD06460F4602460B464046494626
:10829000CDE9048900F082FD02983DA3D3E90023D3
:1082A00004460D4600F02CFFDDE904238046894694
:1082B0002046294600F070FD02460B4630463946FE
:1082C00000F06AFD34A3D3E9002300F019FF34A3C2
:1082D000D3E9002306460F462046294600F010FF4A
:1082E00002460B463046394600F058FDDDE90E23C4
:1082F00000F054FD06460D980F4600F09BFE3246F6
:1083000004460D463B464046494600F047FDDDE940
:10831000082300F043FD22462B4600F03FFD029863
:1083200022462B46CDE9020100F036FDDDE90823A7
:1083300000F032FD42464B4600F02EFD02460B4651
:108340003046394600F028FD8046894636E000BFB9
:108350000000000000000000000000000000F03FEE
:10836000EF4E454A287ECA3F65DBC9934A86CD3F1A
:1083700001411DA96074D13F4D268F515555D53F00
:10838000FFAB6FDBB66DDB3F033333333333E33F98
:10839000000000E009C7EE3FFD033ADC09C7EE3FED
:1083A000F5015B14E02F3EBE000040438E980300B1
:1083B00079B60B000000F03F000008400BF1FF33DE
:1083C00053EA0A0300F088819FEDD77B8DED067B91
:1083D000DDE900AB53465C46CDE900340023009351
:1083E000DDE90045504622462B46594600F0D4FCB4
:1083F000DDE9022300F084FE524606460F465B4646
:108400004046494600F07CFE02460B46304639465F
:1084100000F0C4FC2246804689462B46DDE9020175
:10842000CDE9048900F06CFE0B46024606460F4675
:108430004046494600F0B2FCD54B994204460D46F1
:108440008A4640F3238101F13F4303F5E0030343F0
:1084500040F01882B6A3D3E90023DDE9040100F05F
:108460009DFC3246804689463B462046294600F020
:1084700093FC02460B464046494601F0D1F80028DD
:1084800040F00082A8464FEA28534FF48012A3F22E
:10849000FE3342FA03F35344C3F30A52BD4DA2F232
:1084A000FF321541C3F3130B0020C2F1140423EA79
:1084B00005014BF4801BBAF1000F02460B464BFA44
:1084C00004FB30463946B8BFCBF1000B00F064FC2A
:1084D00002460B4606460F46DDE9040100F05EFC4D
:1084E0004FEA0B5A002494A3D3E9002320460D46FB
:1084F00000F006FE3246804689463B462046294625
:1085000000F04AFC02460B46DDE9040100F044FCA1
:108510008BA3D3E9002300F0F3FD8BA3D3E9002361
:1085200006460F462046294600F0EAFD02460B4665
:108530003046394600F032FC06460F4602460B46EE
:108540004046494600F02AFC42464B4604460D464A
:1085500000F022FC02460B463046394600F01CFC77
:108560002246804689462B462046294600F0C8FD13
:1085700077A3D3E9002306460F4600F0C1FD76A39A
:10858000D3E9002300F008FC32463B4600F0B8FD7A
:1085900073A3D3E9002300F001FC32463B4600F010
:1085A000AFFD71A3D3E9002300F0F6FB32463B4652
:1085B00000F0A6FD6EA3D3E9002300F0EFFB3246E6
:1085C0003B4600F09DFD02460B462046294600F042
:1085D000E3FB06460F4602460B462046294600F0BE
:1085E0008FFD0022CDE900014FF08043304639462F
:1085F00000F0D2FB02460B46DDE9000100F0AAFEC6
:10860000424606460F464B462046294600F078FD76
:1086100042464B4600F0C2FB02460B463046394606
:1086200000F0BAFB22462B4600F0B6FB02460B4692
:108630000020594900F0B0FB8A44BAF5801F024679
:108640000B46C0F25B815146DDE9062300F058FD80
:1086500041EC100B49E404F1404404F5801454EA61
:108660000B0300F03781BBF1010F7FF480AC0246B1
:1086700001F1004343EC102B37E432463B463046D1
:10868000394600F03DFD41EC100B2EE4434B21F048
:108690000048984540F31581414B0B4403430CD1EE
:1086A00032463B4600F078FB02460B46DDE904010A
:1086B00000F0A2FF00283FF4E6AE2FA3D3E9002389
:1086C000DDE9060100F01CFD2BA3D3E9002300F037
:1086D00017FD41EC100B08E49FED297B8DED067B27
:1086E00076E6B9F1000FBFF68EACDDE9003400EE9E
:1086F000103A04F1004300EE903AFFF7F6BB024651
:108700000B460020244900F025FE2DE49FED1E7B42
:108710008DED087B8DED0E7B9FED037B4FF0000808
:108720008DED067BBEE400BF000000000000F03FBE
:10873000FE822B654715973C00000000432EE63F64
:10874000EF39FAFE422EE63F396CA80C615C20BE80
:10875000D0A4BE726937663EF16BD2C541BDBB3E47
:108760002CDE25AF6A56113F93BDBE166CC1663F25
:108770003E5555555555C53F59F3F8C21F6EA501D5
:10878000000000000000F0BF00000000000000003A
:10879000FFFF8F40FFFF0F000000F03FFFCB904036
:1087A00000346F3F6C4B9C427FF72AAC6B4B9C4272
:1087B0003FF7C3AB0022694B00F0EEFA56A3D3E9B2
:1087C000002304460D4600F09BFC55A3D3E900238B
:1087D000804689462046294600F092FC0022CDE9D9
:1087E00002015F4B2046294600F08AFC02460B46F8
:1087F0004DA1D1E9000100F0CFFA22462B4600F04E
:108800007FFC02460B460020564900F0C5FA22467E
:108810002B4606460F462046294600F071FC0246CC
:108820000B463046394600F06BFC41A3D3E90023E8
:1088300000F066FC02460B46DDE9020100F0ACFAEE
:1088400002460B4604460D464046494600F0A6FA4D
:1088500042464B460020CDE9020100F09DFA024657
:108860000B462046294600F097FA80468946A5E542
:1088700032463B460020394900F06CFD41EC100BBC
:10888000FFF733BB2CA3D3E90023DDE9060100F099
:1088900037FC29A3D3E9002300F032FC41EC100B94
:1088A000FFF723BBBEF1000F7FF42AABC3F1140323
:1088B00048FA03F202FA03F3984527D0F346FFF78C
:1088C000F7BA284B98453FF7DEADDDE900349A460C
:1088D0009B4607E602460B46FFF789BB9FED187BD8
:1088E0008DED087B9FED187B8DED0E7B9FED187B4A
:1088F0004FF480288DED067BFFF7D4BB584643EC40
:10890000102B00F0B1F951EC100B9DE602F00102C2
:10891000C2F1020BFFF7CCBA000000604715F73F29
:1089200044DF5DF80BAE543E555555555555D53F72
:10893000FE822B654715F73F9C7500883CE4377E27
:108940000000004003B8E23F06D0CF43EBFD4C3EB1
:10895000000000000000F83FFEFFEF3F0000F03F86
:108960000000D03F0000E03F2DE9F041654955ECA3
:10897000104B0E462940B14200F09780002D2B4647
:1089800010EE102A74DD2F157FD0A7F2FF37C3F346
:108990001303F90743F4801365D403EBD271002667
:1089A0000B447F105200B64616204FF400110EEB18
:1089B00001049C424FEAD2754FEA420203DC1B1BC2
:1089C00004EB010E0E44013805EB43034FEA51015D
:1089D000EDD1844620244FF0004109E020D003EB84
:1089E000D275013C4FEA51012B444FEA420220D09C
:1089F0009E4501EB0C05F1DA002D05EB010C09DBBE
:108A0000F0469542CEEB030300D9013B521B0844CC
:108A1000C646E4E7BCF1000FF2DB0EF10108F0E717
:108A200095421ED8002D05EB010C50DB9846002323
:108A3000ECE7134304D0421C4DD000F0010318446E
:108A400040087110F30701F17F5101F5001148BF93
:108A500040F0004001EB0753024643EC102BBDE809
:108A6000F0817346BBE75B0003EBD273520094E7DF
:108A700025F00041214328D0ADBB2F46D30A153F36
:108A80005205002BFAD0DD0228D4002100E0014677
:108A90005B00DC0201F10100F9D5C0F1200422FAEB
:108AA00004F423437F1A82406FE710EE102A2B460E
:108AB00010EE100A294600F023FB22462B4600F058
:108AC0006DF941EC100BBDE8F081BDE8F081BCF11F
:108AD000000FA2DAAAE701362046B2E720244FF0C1
:108AE000FF310020DBE710EE102A2B4620462946F6
:108AF00000F052F902460B4600F02CFC41EC100B42
:108B0000BDE8F0810000F07F53EC102B23F0004310
:108B100043EC102B704700BF10EE903A43F000403A
:108B200000F58010C00F7047002070470000000063
:108B30009FED010B704700BF000000000000F87FB0
:108B4000F0B553EC102BC3F30A56A6F2FF301328EE
:108B500083B019464FEAD37410EE105A2FDC002868
:108B600049DB3F4E064103EA060717432CD076083F
:108B700033401D430CD04FF48023132821EA06060E
:108B800043FA00F141EA06010CBF4FF00045002511
:108B9000344800EBC4042A46D4E9004510462B466D
:108BA000224600F0FBF8CDE9000122462B46DDE924
:108BB000000100F0F1F841EC100B03B0F0BD3328D8
:108BC00006DDB0F5806F42D043EC102B03B0F0BD52
:108BD000A6F213464FF0FF30F0400242F4D04008B6
:108BE0000242D5D04FF0804325EA000043FA06F652
:108BF00046EA0005CCE723F00040104310EE107A5F
:108C0000E2D0C3F313000743784207431548590CD9
:108C10003F0B490407F4002700EBC40047EA0103B7
:108C2000D0E90067194610463B46324600F0B6F8D8
:108C3000CDE900013B463246DDE9000100F0ACF829
:108C400021F0004343EAC47141EC100BBEE710EE83
:108C5000100A194600F0A2F841EC100BB6E700BF6D
:108C6000FFFF0F0000A00D0053EC102B70B5C3F3F5
:108C70000A541946054614BB23F0004111432AD07B
:108C800019460022384B394E10EE100A00F038FA1F
:108C9000B54202460B461FDBC1F30A54363C2C4456
:108CA00040F2FE7084421FDC002C2DDD21F0FF41DC
:108CB00021F4E00141EA045343EC102B70BD40F273
:108CC000FF708442EBD110EE100A194600F066F8EE
:108CD00041EC100B70BD70BD1FA3D3E9002300F061
:108CE0000FFA41EC100B70BD43EC112B9FED1C0BE8
:108CF00000F040F81AA3D3E9002351EC100B00F068
:108D0000FFF941EC100B70BD14F1350F13DA4CF282
:108D100050318D4243EC112BE8DC9FED0F0B00F03E
:108D200029F80DA3D3E9002351EC100B00F0E8F96A
:108D300041EC100B70BD21F0FF4121F4E00136340D
:108D400041EA0453104619460022094B00F0D8F9B5
:108D500041EC100B70BD00BF59F3F8C21F6EA501A6
:108D60009C7500883CE4377E00005043B03CFFFF18
:108D70000000903C53EC102B11EE900A23F00041C0
:108D800000F0004041EA000343EC102B704700BFA5
:108D900081F0004102E000BF83F0004330B54FEAAC
:108DA00041044FEA430594EA050F08BF90EA020F19
:108DB0001FBF54EA000C55EA020C7FEA645C7FEAAC
:108DC000655C00F0E2804FEA5454D4EB5555B8BFCF
:108DD0006D420CDD2C4480EA020281EA030382EA40
:108DE000000083EA010180EA020281EA0303362DD2
:108DF00088BF30BD11F0004F4FEA01314FF4801CA5
:108E00004CEA113102D0404261EB410113F0004FB6
:108E10004FEA03334CEA133302D0524263EB43036D
:108E200094EA050F00F0A780A4F10104D5F1200E0B
:108E30000DDB02FA0EFC22FA05F2801841F1000166
:108E400003FA0EF2801843FA05F359410EE0A5F13A
:108E500020050EF1200E012A03FA0EFC28BF4CF06B
:108E6000020C43FA05F3C01851EBE37101F0004521
:108E700007D54FF0000EDCF1000C7EEB00006EEB2E
:108E80000101B1F5801F1BD3B1F5001F0CD34908B8
:108E90005FEA30004FEA3C0C04F101044FEA44520F
:108EA00012F5800F80F09A80BCF1004F08BF5FEA96
:108EB000500C50F1000041EB045141EA050130BD76
:108EC0005FEA4C0C404141EB010111F4801FA4F119
:108ED0000104E9D191F0000F04BF01460020B1FA6E
:108EE00081F308BF2033A3F10B03B3F120020CDAA6
:108EF0000C3208DD02F1140CC2F10C0201FA0CF084
:108F000021FA02F10CE002F11402D8BFC2F1200CE8
:108F100001FA02F120FA0CFCDCBF41EA0C0190409E
:108F2000E41AA2BF01EB0451294330BD6FEA0404E7
:108F30001F3C1CDA0C340EDC04F11404C4F12002D2
:108F400020FA04F001FA02F340EA030021FA04F3E4
:108F500045EA030130BDC4F10C04C4F1200220FA3B
:108F600002F001FA04F340EA0300294630BD21FA79
:108F700004F0294630BD94F0000F83F4801306BF3F
:108F800081F480110134013D4EE77FEA645C18BF33
:108F90007FEA655C29D094EA050F08BF90EA020FCA
:108FA00005D054EA000C04BF1946104630BD91EAC2
:108FB000030F1EBF0021002030BD5FEA545C05D1C5
:108FC0004000494128BF41F0004130BD14F5800404
:108FD0003CBF01F5801130BD01F0004545F0FE4178
:108FE00041F470014FF0000030BD7FEA645C1ABFAD
:108FF000194610467FEA655C1CBF0B46024650EAE4
:10900000013406BF52EA033591EA030F41F400210F
:1090100030BD00BF90F0000F04BF0021704730B595
:109020004FF4806404F132044FF000054FF000016A
:1090300050E700BF90F0000F04BF0021704730B52B
:109040004FF4806404F1320410F0004548BF404200
:109050004FF000013EE700BF42004FEAE2014FEA55
:1090600031014FEA02701FBF12F07F4393F07F4F30
:1090700081F06051704792F0000F14BF93F07F4F62
:10908000704730B54FF4607401F0004521F00041A5
:1090900020E700BF50EA010208BF704730B54FF02B
:1090A00000050AE050EA010208BF704730B511F030
:1090B000004502D5404261EB41014FF4806404F168
:1090C00032045FEA915C3FF4DCAE4FF003025FEAEA
:1090D000DC0C18BF03325FEADC0C18BF033202EB72
:1090E000DC02C2F1200300FA03FC20FA02F001FACC
:1090F00003FE40EA0E0021FA02F11444C1E600BF6B
:1091000070B54FF0FF0C4CF4E06C1CEA11541DBF1D
:109110001CEA135594EA0C0F95EA0C0F00F0DEF8E8
:109120002C4481EA030621EA4C5123EA4C5350EACD
:10913000013518BF52EA033541F4801143F480131E
:1091400038D0A0FB02CE4FF00005E1FB02E506F0AF
:109150000042E0FB03E54FF00006E1FB03569CF004
:10916000000F18BF4EF0010EA4F1FF04B6F5007F0A
:1091700064F5407404D25FEA4E0E6D4146EB06067C
:1091800042EAC62141EA55514FEAC52040EA5E5005
:109190004FEACE2EB4F1FD0C88BFBCF5E06F1ED8AF
:1091A000BEF1004F08BF5FEA500E50F1000041EBE6
:1091B000045170BD06F0004646EA010140EA020093
:1091C00081EA0301B4EB5C04C2BFD4EB0C0541EAB5
:1091D000045170BD41F480114FF0000E013C00F3CA
:1091E000AB8014F1360FDEBF002001F0004170BDEE
:1091F000C4F10004203C35DA0C341BDC04F1140407
:10920000C4F1200500FA05F320FA04F001FA05F292
:1092100040EA020001F0004221F0004110EBD3705F
:1092200021FA04F642EB06015EEA430E08BF20EA8B
:10923000D37070BDC4F10C04C4F1200500FA04F32E
:1092400020FA05F001FA04F240EA020001F00041C0
:1092500010EBD37041F100015EEA430E08BF20EA33
:10926000D37070BDC4F1200500FA05F24EEA020E7B
:1092700020FA04F301FA05F243EA020321FA04F0AA
:1092800001F0004121FA04F220EA020000EBD37061
:109290005EEA430E08BF20EAD37070BD94F0000F61
:1092A0000FD101F00046400041EB010111F4801F95
:1092B00008BF013CF7D041EA060195F0000F18BF46
:1092C000704703F00046520043EB030313F4801F82
:1092D00008BF013DF7D043EA0603704794EA0C0F3C
:1092E0000CEA135518BF95EA0C0F0CD050EA410652
:1092F00018BF52EA4306D1D181EA030101F00041CF
:109300004FF0000070BD50EA410606BF10461946F6
:1093100052EA430619D094EA0C0F02D150EA013602
:1093200013D195EA0C0F05D152EA03361CBF104643
:1093300019460AD181EA030101F0004141F0FE41E2
:1093400041F470014FF0000070BD41F0FE4141F466
:10935000780170BD70B54FF0FF0C4CF4E06C1CEA66
:1093600011541DBF1CEA135594EA0C0F95EA0C0F1B
:1093700000F0A7F8A4EB050481EA030E52EA0335D6
:109380004FEA013100F088804FEA03334FF08055F7
:1093900045EA131343EA12634FEA022245EA111524
:1093A00045EA10654FEA00260EF000419D4208BFD5
:1093B000964244F1FD0404F5407402D25B084FEA82
:1093C0003202B61A65EB03055B084FEA32024FF42E
:1093D00080104FF4002CB6EB020E75EB030E22BF8B
:1093E000B61A754640EA0C005B084FEA3202B6EB4B
:1093F000020E75EB030E22BFB61A754640EA5C00FA
:109400005B084FEA3202B6EB020E75EB030E22BF89
:10941000B61A754640EA9C005B084FEA3202B6EB8A
:10942000020E75EB030E22BFB61A754640EADC0049
:1094300055EA060E18D04FEA051545EA16754FEAAB
:1094400006164FEAC30343EA52734FEAC2025FEAC9
:109450001C1CC0D111F4801F0BD141EA00014FF058
:1094600000004FF0004CB6E711F4801F04BF014329
:109470000020B4F1FD0C88BFBCF5E06F3FF6AFAE45
:10948000B5EB030C04BFB6EB020C5FEA500C50F1D5
:10949000000041EB045170BD0EF0004E4EEA113158
:1094A00014EB5C04C2BFD4EB0C0541EA045170BD5F
:1094B00041F480114FF0000E013C90E645EA060EA3
:1094C0008DE60CEA135594EA0C0F08BF95EA0C0FD1
:1094D0003FF43BAF94EA0C0F0AD150EA01347FF419
:1094E00034AF95EA0C0F7FF425AF104619462CE7F0
:1094F00095EA0C0F06D152EA03353FF4FDAE104653
:10950000194622E750EA410618BF52EA43067FF4A3
:10951000C5AE50EA41047FF40DAF52EA43057FF433
:10952000EBAE12E74FF0FF3C06E000BF4FF0010C3E
:1095300002E000BF4FF0010C4DF804CD4FEA410CA2
:109540007FEA6C5C4FEA430C18BF7FEA6C5C1BD06F
:1095500001B050EA410C0CBF52EA430C91EA030FF0
:1095600002BF90EA020F0020704710F1000F91EA4D
:10957000030F58BF994208BF90422CBFD8176FEA1B
:10958000E37040F0010070474FEA410C7FEA6C5CE9
:1095900002D150EA013C07D14FEA430C7FEA6C5CF0
:1095A000D6D152EA033CD3D05DF8040B704700BF1C
:1095B0008446104662468C461946634600E000BF6A
:1095C00001B5FFF7B7FF002848BF10F1000F01BD3C
:1095D0004DF808EDFFF7F4FF0CBF012000205DF807
:1095E00008FB00BF4DF808EDFFF7EAFF34BF01208C
:1095F00000205DF808FB00BF4DF808EDFFF7E0FF25
:1096000094BF012000205DF808FB00BF4DF808ED75
:10961000FFF7CEFF94BF012000205DF808FB00BFDC
:109620004DF808EDFFF7C4FF34BF012000205DF8BE
:1096300008FB00BF4FEA410C7FEA6C5C02D150EAA4
:10964000013C0AD14FEA430C7FEA6C5C02D152EA3A
:10965000033C02D14FF0000070474FF0010070470B
:109660004FEA410212F5001215D211D56FF478734A
:10967000B3EB625212D94FEAC12343F0004343EAED
:10968000505311F0004F23FA02F018BF40427047C8
:109690004FF00000704750EA013005D111F0004052
:1096A00008BF6FF0004070474FF00000704700BFE8
:1096B0004A0011D212F5001211D20DD56FF4787351
:1096C000B3EB62520ED44FEAC12343F0004343EAA6
:1096D000505323FA02F070474FF00000704750EAF1
:1096E000013002D14FF0FF3070474FF0000070475B
:1096F00010B5054C13462CB10A4601460220AFF3C3
:10970000008010BD204610BD0000000010B5431EB3
:109710000A44914204D011F8014B03F8014FF8E7D5
:1097200010BD02440346934202D003F8011BFAE73E
:109730007047000038B5124B1C68A36B0546D3B9BF
:109740001820FCF7F7FD43F20E33A06303804AF6BE
:10975000CD33438041F2342383804EF26D63C38066
:109760004DF6EC630381052343810B2383810122A2
:109770000023C0E90423A36B00221D615A6138BD98
:10978000D0E20320194B10B51C68A36BD3B9182085
:10979000FCF7D0FD43F20E33A06303804AF6CD33CD
:1097A000438041F2342383804EF26D63C3804DF6D3
:1097B000EC630381052343810B2383810122002372
:1097C000C0E90423A16B0A4C0B694869094A5C4350
:1097D00002FB0040A3FB02230132034443F10003D8
:1097E000C1E9042323F0004010BD00BFD0E20320F4
:1097F0002DF451582D7F954C10F8012B11F8013B99
:10980000012A28BF9A42F7D0D01A7047034611F8B0
:10981000012B03F8012B002AF9D17047034613F8F6
:10982000012B002AFBD1181A0138704721400D0086
:109830005D400D0089400D008D400D0000000000CE
:109840002F73746172747570002F6C6564002F6DD6
:109850006F746F72002F616363656C65726F6D6505
:10986000746572002F666C657853656E736F720055
:109870002F666C657853656E736F7254776F0058FE
:10988000613D200020202059613D20002020205AE9
:10989000613D200073656E736F723A200073656ED0
:1098A000736F72323A20002F70686F746F63656C4B
:1098B0006C002F39444F460053544152542D55509B
:1098C000004C4544004D4F544F523A2000415247FE
:1098D0004F4E204950202844484350293A20002523
:1098E000642E25642E25642E2564006761696E73DD
:1098F0005F6F7269675B5D3A0073657420676169C9
:109900006E735B5D3A006F726967696E616C2067A8
:1099100061696E733F0058595A20434F554E545356
:109920003A200058595A2047733A2000676574540A
:1099300061705468726573686F6C6428293A2000FE
:10994000676574417869734F666673657428267815
:109950002C2026792C20267A293A20006765745419
:1099600061704475726174696F6E28293A200067CE
:109970006574446F75626C655461704C6174656E9A
:10998000637928293A2000676574446F75626C65B5
:1099900054617057696E646F772829200067657479
:1099A00041637469766974795468726573686F6C21
:1099B0006428292000676574496E6163746976695B
:1099C00074795468726573686F6C64282920006725
:1099D000657454696D65496E6163746976697479FB
:1099E00028293A20006765744672656546616C6C8B
:1099F0005468726573686F6C6428293A2000676543
:109A0000744672656546616C6C4475726174696F09
:109A10006E28293A20006973416374697669747904
:109A200058456E61626C656428293A20006973416B
:109A30006374697669747959456E61626C656428EE
:109A4000293A2000697341637469766974795A45CB
:109A50006E61626C656428293A20006973496E6101
:109A60006374697669747958456E61626C656428BF
:109A7000293A20006973496E616374697669747963
:109A800059456E61626C656428293A200069734902
:109A90006E61637469766974795A456E61626C654A
:109AA0006428293A2000697341637469766974797E
:109AB000416328293A200067657453757070726598
:109AC000737342697428293B20747275653F2000C6
:109AD0006765745375707072657373426974282971
